{"abi":[{"type":"function","name":"init","inputs":[],"outputs":[],"stateMutability":"nonpayable"}],"bytecode":{"object":"0x6080604052348015600e575f5ffd5b506101458061001c5f395ff3fe608060405234801561000f575f5ffd5b5060043610610029575f3560e01c8063e1c7392a1461002d575b5f5ffd5b61010d7fc8fcad8db84d3cc18b4c41d551ea0ee66dd599cde068d998e57d5e09332c131f6020527f699d9daa71b280d05a152715774afa0a81a312594b2d731d6b0b2552b7d6f69f8054600160ff1991821681179092557ff97e938d8af42f52387bb74b8b526fda8f184cc2aa534340a8d75a88fbecc77580548216831790557f65d510a5d8f7ef134ec444f7f34ee808c8eeb5177cdfd16be0c40fe1ab43369580548216831790556307f5828d60e41b5f527f5622121b47b8cd0120c4efe45dd5483242f54a3d49bd7679be565d47694918c380549091169091179055565b00fea264697066735822122028f7e4e9ead2bf6c69f5ecbb0403c9e23d0272d6061e9437c4aa096c9b2fbedc64736f6c634300081c0033","linkReferences":{}},"methodIdentifiers":{"init()":"e1c7392a"},"id":11}